:020000020000FC
:040000000C9400015B
:100200000FE50DBF04E00EBF00274427222700E3BF
:1002100001BB002707BB0FEF08BB00270ABD08BDC5
:100220000CBD0DBD01EB0FBD01E00EBDB09903C0CB
:100230000FEF0ABD08BDB19904C000270ABD08E050
:1002400008BDB29904C008EF0ABD0FEF08BDB3990D
:1002500003C000270ABD08BDB499E8CF222329F4C2
:100260004B5F403031F4209504C045504F3F09F4B6
:1002700020954ABD48BD10E030E01A95F1F73A9557
:04028000E1F7EACFE9
:00000001FF
